:020000040800F2
:1000000000000120259C00081D4700081F4700082C
:10001000214700082347000825470008000000008A
:10002000000000000000000000000000E186000861
:10003000274700080000000081870008438200086D
:100040006D9C00086D9C00086D9C00086D9C00086C
:100050006D9C00086D9C00086D9C00086D9C00085C
:100060006D9C00086D9C00086D9C00086D9C00084C
:100070006D9C00086D9C00086D9C00086D9C00083C
:1000800029470008394700086D9C00086D9C00084E
:100090006D9C00086D9C00086D9C00086D9C00081C
:1000A0006D9C0008494700086D9C00086D9C000885
:1000B0006D9C00086D9C00086D9C00086D9C0008FC
:1000C0006D9C00086D9C00086D9C00086D9C0008EC
:1000D0006D9C00086D9C0008594700086D9C000845
:1000E0006D9C00086D9C00086D9C00086D9C0008CC
:1000F0006D9C00086D9C00086D9C00086D9C0008BC
:100100006D9C00086D9C00086D9C00086D9C0008AB
:100110006D9C00086D9C00086D9C00086D9C00089B
:100120006D9C00086D9C00086D9C00086D9C00088B
:1001300000000000000000000000000000000000BF
:1001400000000000000000000000000000000000AF
:10015000000000000000000000000000000000009F
:10016000000000000000000000000000000000008F
:10017000000000000000000000000000000000007F
:10018000000000000000000000000000000000006F
:10019000000000000000000000000000000000005F
:1001A000000000000000000000000000000000004F
:1001B000000000000000000000000000000000003F
:1001C000000000000000000000000000000000002F
:1001D000000000000000000000000000000000001F
:0401E0005FF8E0F1F3
:1001F0000348044B834202D0034B03B118477047B6
:1002000024010020240100200000000005480649C8
:100210000B1AD90F01EBA301491002D0034B03B114
:10022000184770472401002024010020000000002E
:1002300010B5064C237843B9FFF7DAFF044B13B12E
:100240000448AFF300800123237010BD2801002073
:10025000000000009853010808B5044B1BB1044985
:100260000448AFF30080BDE80840CFE7000000007D
:100270002C01002098530108014B1868704700BFFB
:100280000000002070B50D4E0D4D761BB61006D047
:10029000002455F8043B01349847A642F9D1094E91
:1002A000094D15F079F8761BB61006D0002455F8E4
:1002B000043B01349847A642F9D170BD946101080E
:1002C000946101089861010894610108844641EA3B
:1002D000000313F0030349D1403A23D30B680360B2
:1002E0004B6843608B688360CB68C3600B690361B4
:1002F0004B6943618B698361CB69C3610B6A03629C
:100300004B6A43628B6A8362CB6AC3620B6B036383
:100310004B6B43638B6B8363CB6BC3634030403168
:10032000403ADBD230320BD30B6803604B6843603A
:100330008B688360CB68C36010301031103AF3D201
:100340000C3205D351F8043B40F8043B043AF9D28F
:10035000043208D0D2071CBF11F8013B00F8013B62
:1003600001D30B8803806046704700BF082A13D36F
:100370008B07B1D010F00303AED0C3F10403D21A3F
:10038000DB071CBF11F8013B00F8013BA4D331F897
:10039000023B20F8023B9FE7043AD9D3013A11F817
:1003A000013B00F8013BF9D20B7803704B784370A6
:1003B0008B78837060467047830730B548D0541EF1
:1003C000002A3FD00346CAB201E0013C3AD303F809
:1003D000012B9D07F9D1032C2DD9CDB245EA052576
:1003E0000F2C45EA054536D9A4F1100222F00F0C76
:1003F00003F1200EE6444FEA121C03F1100242E919
:10040000045542E9025510327245F8D10CF101024F
:1004100014F00C0F03EB021204F00F0C13D0ACF12C
:10042000040323F003030433134442F8045B9342B0
:10043000FBD10CF003042CB1CAB21C4403F8012B0D
:100440009C42FBD130BD64461346002CF4D1F9E741
:1004500003461446BFE71A46A446E0E70EB410B5BB
:10046000044683B008B183695BB106AB2046059AA8
:10047000A168019300F042FA03B0BDE8104003B058
:10048000704700F041F9F0E70FB410B50A4B82B0A5
:100490001C680CB1A3695BB105AB2046049AA16846
:1004A000019300F02BFA02B0BDE8104004B0704791
:1004B000204600F029F9EFE70000002020F00301BA
:1004C00010F00300C0F1000051F8043B00F1040CEF
:1004D0004FEACC0C6FF000021CBF22FA0CF213435F
:1004E0004FF0010C4CEA0C2C4CEA0C4CA3EB0C0228
:1004F00022EA030212EACC1204BF51F8043B043092
:10050000F4D0C2F1000102EA0102B2FA82F2C2F1B1
:100510001F0200EBD200704700207047014900F035
:1005200033B900BF5513000800207047682270B52A
:100530004D1E02FB05F50E4605F1740100F048F969
:10054000044640B100210C30C4E9016005F16802A5
:100550002160FFF731FF204670BD00BF274B2DE91A
:10056000F0411E680746B36953B34FF0040848369C
:10057000D6E90134013B04D51EE05A1C04F168049D
:100580001AD0B4F90C50013B002DF6D11C4B0822B7
:100590002946C4E90055C4E90253C4E90455656617
:1005A000A56104F15C00FFF707FFC4E90D55C4E93C
:1005B00012552046BDE8F08135682DB12E46D7E7AB
:1005C000304600F01FF8D0E74FF4D671384600F0FF
:1005D000FFF8044668B1056029460546C0F8048066
:1005E0000C304FF4D072A060FFF7E6FE34602E4668
:1005F000BEE70C2330603B60DBE700BFE853010837
:100600000100FFFF0023334A2DE9F0471268C0E9DB
:1006100012339042036508BF01232F4908BF83614D
:1006200081620546FFF79AFF034628466B60FFF795
:1006300095FFA86028460024FFF790FF04236E680A
:10064000DFF898A0DFF89890DFF89880264FE860F0
:100650000822F3602146C6E90044C6E904447466F2
:10066000B460B46106F15C00FFF7A6FE1F4BC6E95B
:10067000086AC6E90A983763AE680822F360214623
:10068000C6E90044C6E904447466B460B46106F186
:100690005C00FFF791FE164BC6E9086AC6E90A98A6
:1006A0003763EE682146F3600822C6E90044C6E9D4
:1006B00004447466B460B46106F15C00FFF77CFE2C
:1006C0000123C6E9086AC6E90B87C6F82890AB6122
:1006D000BDE8F087E85301081D050008A50F0008D4
:1006E000CD0F00080D1000082D10000809000100B2
:1006F00012000200024B0349186800F045B800BF21
:10070000E853010855130008836903B97AE7704775
:10071000704700BF704700BF704700BF704700BF01
:10072000024B0349186800F00FB800BF000000201A
:1007300019050008024B0349186800F005B800BF0E
:1007400000000020290500082DE9F0410026884618
:1007500000F14807D7E90154013D0ED4A389013DBA
:10076000012B06D9B4F90E30013302D02046C04720
:1007700006436B1C04F16804F0D13F68002FE9D1F7
:100780003046BDE8F08100BF2DE9F8434FF0000985
:100790000746884600F14806D6E90154013D10D4C9
:1007A000A389013D012B08D9B4F90E30013304D0DF
:1007B00021463846C04749EA00096B1C04F1680429
:1007C000EED13668002EE7D14846BDE8F88300BF79
:1007D000F8B5CD1C25F0030508350C2D38BF0C25C8
:1007E000002D064623DBA94221D8264F01F0FCF854
:1007F0003A6822B3144603E063682246FBB11C4604
:1008000023685B1BF8D40B2B15D8636894420CBF8C
:100810003B605360304601F0E9F804F10B00231D02
:1008200020F00700C21A01D01B1AA350F8BD0C23F8
:1008300000203360F8BD23601C442560EAE7796836
:10084000D1B12946304600F09BFB431C01460CD039
:10085000C41C24F00304A04205D03046611A00F005
:100860008FFB013001D02560D4E70C233046336084
:1008700001F0BCF80020F8BD304600F081FB786044
:10088000DFE700BF440100209368013B002B936029
:1008900005DAD2F818C0634507DB0A2905D01368CA
:1008A000581C106008461970704700F0C3BB00BFA9
:1008B0009BB1F8B5134406460F46541E5D1E01E079
:1008C000AC4208D03A46304614F8011FFFF7DCFF6F
:1008D000431CF5D1F8BD0020F8BD0020704700BFD3
:1008E000936810B5144613B91846536010BD00F054
:1008F0009BFD0023C4E9013310BD00BF2DE9F04F7B
:100900000E4692461C4607469FB018B18369002BDD
:1009100000F0A880954B9E4200F0AA80944B9E4226
:1009200000F0B580934B9E4208BFFE68B38918075C
:1009300040F1A3803369002B00F09F800023202228
:100940000B9330239AF80010059401258A4C8DF8FA
:1009500031208DF8323000297DD0D1460B4604E09D
:1009600019F8013F002B00F09480252BF8D1B9EB4A
:100970000A0B40F0918099F80030002B6BD00023D7
:100980004FF0FF3209F10109CDE9072306930993DE
:100990008DF85B301C9304E0001B05FA00F018434F
:1009A0000690CA460522204619F8011B00F058FFA0
:1009B000069B0028F0D1D90644BF20228DF85B2089
:1009C0001A0748BF2B229AF8001048BF8DF85B2009
:1009D0002A2972D1059A1168043200290592C0F2C1
:1009E000A08009919AF801100AF1010A2E2976D007
:1009F000DFF888910322484600F032FF48B14022D8
:100A0000069BA0EB090002FA00F003430AF1010A79
:100A100006931AF8011B062259488DF8301000F091
:100A20001FFF002800F08380564B002B6CD005A9D7
:100A3000009132463846544B06A9AFF3008003902C
:100A4000039B013307D00B9B039A9AF800101344C1
:100A50000B93002981D1B3895B0615D40B981FB085
:100A6000BDE8F08FFFF750FE404B9E427FF456AF3B
:100A70007E68B38918073FF55DAF3146384600F010
:100A800051FB00283FF45AAF4FF0FF30E7E7BE6854
:100A90004CE7B9EB0A0BDED0D046CAF1010A03E0FD
:100AA000934538D918F8011F32463846FFF7ECFE57
:100AB00001300AEB0802F3D1CDE7A1F13002092A97
:100AC00094D8099B1AF8011F03EB830302EB43033D
:100AD000A1F13002092AF5D92E29099388D19AF873
:100AE00001102A292DD1059B0AF102001A6804334E
:100AF000002A0593B8BF4FF0FF339AF8021007920F
:100B00008246B8BF079373E7059B073323F00703BB
:100B10000833059397E70B9A99F800305A440B92E3
:100B20002BE7494243F00203099106935AE705A9CE
:100B3000009132463846144B06A900F0CBF80390DA
:100B40007EE70023A1F13002092A0AF1010A079386
:100B50003FF64EAF1AF8011F03EB830302EB43038A
:100B6000A1F13002092AF5D9079341E72C54010875
:100B70000C540108EC53010868570108705701082C
:100B80007457010800000000B10800088C4600B549
:100B900086461346034A714610685DF804EB6246C8
:100BA000FFF7ACBE000000202DE9F04791461E463D
:100BB0000A698B680C469A42B8BF1A46C9F80020E9
:100BC00091F843300546DDF8208013B10132C9F8B1
:100BD0000020226891065DD5D9F800300233C9F8AB
:100BE0000030226812F0060F11461ED1E168CB1AC0
:100BF000002BD8BF114618DD002704F1190A06E0C2
:100C0000D9F80030E268A2EB030CBC450CDD0123EF
:100C1000524631462846C047013007F10107EFD15F
:100C20004FF0FF30BDE8F087216894F84330003B77
:100C300018BF01238A060AD53021E21882F8431032
:100C400094F845105A1C2244023382F8431031466E
:100C5000284604F14302C0470130E1D0236803F085
:100C60000603042B1DD0A3682269934225DD0027CB
:100C70009B1A1F4404F11A09002401E0BC421CDA4B
:100C800001234A4631462846C047013004F1010499
:100C9000F4D1C5E712F0060F12D0003B18BF0123B4
:100CA000D5E7D9F80030E1682269C91AA36821EABA
:100CB000E1779342DCDC0029DCDC0020BDE8F08732
:100CC000E168D9F80030CB1A002BD8BF114693DC6D
:100CD000ABE700BF2DE9F04317460A7E85B00C460E
:100CE000064698460C9D01F1430C002A33D0A2F130
:100CF0005803D9B2202967D8202B65D8DFE813F034
:100D0000DD0064006400640064006400640064004A
:100D1000640064006400A3006E006400640064006A
:100D200064006E00640064006400640021007F00C1
:100D3000BF0064006400AE0064007F0064006400D3
:100D4000E40023681A0640F102812B686269191DCC
:100D500029601B681A600023E14623613B46214657
:100D60003046CDF8008003AAFFF71EFF013020D0E7
:100D70004A46394630462369C047013019D02368B6
:100D8000E0689B07039919D5431A002B16DD00254F
:100D900004F1190904E0E0680399431AAB420DDD40
:100DA00001234A4639463046C047013005F1010566
:100DB000F1D14FF0FF3005B0BDE8F0838842B8BFF5
:100DC000084605B0BDE8F083012384F8422004F111
:100DD00042092361002384F84330BFE723681906E2
:100DE00002D45A0600F1BF8029680A6804312960DC
:100DF0001146002A6ADB0A25DFF87CE110E023684F
:100E0000180640F19A802B68191D296019686F2A0D
:100E10000CBF08250A25DFF860E1002384F8433081
:100E20006268002AA2607DDB236823F0040323604C
:100E3000002959D1002A77D1E146082D63D0ACEBC7
:100E4000090323618AE701222B6804F1420919682A
:100E500004332B6084F842102261BBE72B68002129
:100E60001A1D2A60D3F800906268484600F0F8FC2A
:100E700000287FD0A0EB090060602061AAE723680A
:100E800043F0200323607822DFF8F0E084F8452067
:100E90002A68111D2960190642D45D0640D51188C3
:100EA000D80744BF43F020032360002943D12368BF
:100EB000102523F020032360AFE75823DFF8B8E0C4
:100EC00084F845302368E3E72368DCE72D2284F8C3
:100ED000432062684942002AA26002DB23F0040337
:100EE00023600A25DFF890E0E146B1FBF5F30A46FE
:100EF00005FB131019461EF80030AA4209F8013DFF
:100F0000F3D2082D9BD12368D90798D5626823694D
:100F10009A4294DC302309F1FF3989F800308EE7DA
:100F20001168BDE70029DFD19EF8003004F14209C5
:100F300084F8423081E710256FE713F0400F2B68EB
:100F400003F1040129600CBF196819885FE713F0E9
:100F5000400F2B68626903F1040129601B6814BF0C
:100F60001A801A60F7E62A68B2F9001004322A6083
:100F70000A463EE7606880E77C5701089057010801
:100F8000002238B5064D044608462A6007F000FDE9
:100F9000431C00D038BD2B68002BFBD0236038BD2C
:100FA0004C01002010B50C46B1F90E1000F0AEFD5A
:100FB000002803DB636D0344636510BDA38923F43C
:100FC0008053A38110BD00BF002070472DE9F04180
:100FD0000C46B1F90C101F46CB05054616460BD43E
:100FE00021F48051A1813B4632462846B4F90E10C7
:100FF000BDE8F04100F080B8B4F90E1002230022E1
:1010000000F08AFBB4F90C10EAE700BF10B50C46FB
:10101000B1F90E1000F080FBA389421C0EBF23F42F
:10102000805343F480536065A38110BDB1F90E1065
:1010300000F0FAB8F8B506460D46144608B18369C3
:1010400043B3254B9C422AD0244B9C4229D0244BAD
:101050009C4208BFF468A269A389A2601A0722D53E
:10106000236903B322686169D31AEDB299422F460E
:1010700029DD0133A1680139A160511C216015707F
:1010800062699A4216D0A389DB0701D50A2D11D0D7
:101090003846F8BDFFF738FB0F4B9C42D4D174683B
:1010A000D9E7B468D7E72146304600F03BF838B9B5
:1010B0002369D7E72146304600F04CF90028E7D0F5
:1010C0004FF0FF37E4E72146304600F043F90028AF
:1010D000F6D101232268CDE72C5401080C540108F5
:1010E000EC53010803460A46024908681946FFF70F
:1010F000A1BF00BF0000002038B50C4611460022F9
:101100008446074D20462A601A46644607F032FCA2
:10111000431C00D038BD2B68002BFBD0236038BDAA
:101120004C0100203C4B70B51D6806460C460DB1C5
:10113000AB69E3B1394B9C421FD0394B9C424DD037
:10114000384B9C4208BFEC68B4F90C3018079AB2CF
:1011500019D5216911B312F001002FD00025606963
:10116000A5604042A06100292ED0002070BD284615
:10117000FFF7CAFA294B9C42DFD16C68B4F90C30F6
:1011800018079AB2E5D4D1063ED5520728D4216972
:1011900043F00803A3819AB20029DCD102F4207045
:1011A000B0F5007FD7D02146304600F0CBFAB4F935
:1011B0000C3021699AB212F00100CFD1950758BFC7
:1011C0006069A0600029D0D1120658BF0846CDD56D
:1011D00043F040034FF0FF30A38170BDAC68B3E72C
:1011E000616B51B104F14402914204D0304600F0E9
:1011F000FFFBB4F90C30002262630022216923F066
:101200002403C4E90012C3E7092243F0400332601B
:101210004FF0FF30A38170BD000000202C54010866
:101220000C540108EC530108002238B5064D044661
:1012300008462A6007F0D2FB431C00D038BD2B685B
:10124000002BFBD0236038BD4C010020F8B58B8902
:101250000C46190707463BD46268002A55DDE66A4A
:10126000002E50D000223D683A6013F4805250D1D5
:1012700001233846216AB047421C5CD0A389E66A44
:101280005B0705D56368C01A636B0BB1236CC01A8A
:101290000246216A00233846B047411C3BD13B68D7
:1012A000002B38D01D2B01D0162B4BD100232269E7
:1012B000C4E90023616B3D6029B304F14403994202
:1012C00002D0384600F094FB002318466363F8BD53
:1012D0002669C6B19A0718BF0023256808BF63694D
:1012E0002660AD1BA3600CE02B463246D4F828C024
:1012F0003846216AE047B0F1000CA5EB0C056644C6
:1013000012DD002DF0DC0020F8BD226C002AA6DCE6
:10131000F9E7606DB4E70022236962602360A38966
:10132000DB04C7D56065C5E7A3894FF0FF3043F004
:101330004003A381F8BD3B68002B9FD01D2B06D036
:10134000162B04D0A38943F04003A381F8BD0020ED
:101350003D60F8BD38B50B69BBB10C46054608B118
:101360008369B3B10D4B9C4211D00D4B9C4213D0FD
:101370000C4B9C4208BFEC68B4F90C302BB12146F1
:101380002846BDE83840FFF761BF002038BD6C68D3
:10139000F2E7FFF7B9F9E5E7AC68EDE72C5401088F
:1013A0000C540108EC53010838B540B303690446F6
:1013B000E3B1174B1D680DB1AB69CBB1154B9C4226
:1013C0000FD0154B9C4221D0144B9C4208BFEC68B7
:1013D000B4F90C3053B121462846BDE83840FFF738
:1013E00035BF6C68B4F90C30002BF4D1002038BD47
:1013F0002846FFF789F9074B9C42E2D1F1E7084BF9
:1014000008491868BDE83840FFF7BEB9AC68DFE7A7
:10141000000000202C5401080C540108EC53010872
:10142000E8530108551300089368002B00F0B780BB
:101430002DE9F04FB1F90C300C46190780461746DC
:1014400083B098B225D523691BB310F002033D6821
:101450002DD04FF0000B5E46DFF8B8A2002E00F052
:101460008B80564533465A4628BF53464046216A2C
:10147000D4F828C0E047002840F38780BB68834445
:101480001B1A361ABB60002BE8D1002003B0BDE860
:10149000F08F21464046FFF745FE002840F0368198
:1014A000B4F90C303D6898B210F00203D1D110F0BD
:1014B000010976D14E46002E5AD08205D4F808B0E4
:1014C00040F1B580B3455A4600F2CD8010F4906FDC
:1014D00000F0CB8023682169A3EB010B636903EB68
:1014E000430A0AEBDA7A0BF101034FEA6A0A334442
:1014F0005345524684BF9A465246430540F1EA801E
:1015000011464046FFF764F9002800F0F9805A467A
:1015100021690190FEF7DAFEA289019B22F4906214
:1015200042F08002A28103EB0B0023613246AAEB5A
:101530000B03B346C4F814A0A3602060B246002693
:101540004946019200F0D4F9A3682168019AA3EBFF
:101550000B030A44A3602260B868D144A0EB0A00E0
:10156000B860002891D0B4F90C0080B2002EA4D14C
:10157000D5E9009608359EE7D5E900B608356DE750
:1015800021464046FFF7E6FE80B3B4F90C304FF039
:10159000FF3043F04003A38103B0BDE8F08F00208B
:1015A00070471E46AA46994618461D4656B300285F
:1015B00032D04A4620682169B24228BF324688426A
:1015C000636904D9A16803EB010B5A4574DC9342AB
:1015D00065DC2A464046216AD4F828C0E047B0F1CD
:1015E000000BD2DDB9EB0B09CAD00120BB685D440A
:1015F000A3EB0B03A6EB0B06BB60002B3FF445AF40
:10160000002ED4D10AF1080353F8046C9A4653F81B
:10161000085C0833002EF7D032460A21284600F035
:101620001FF9002869D00130A0EB0509C1E7206847
:10163000236998421BD86369B34218D86FF0004CF5
:10164000B44528BFB4469CFBF3FC4A4603FB0CF3AD
:101650004046216AD4F828C0E047B0F1000A94DD82
:10166000A6EB0A0678E7B3463246206866E7B3453C
:10167000DA4628BFB2464946524600F039F9A36817
:101680002268A3EB0A035244A3602260002BE7D137
:1016900021464046FFF75EFE0028E1D075E7294667
:1016A0009346019200F024F9A368019A9B1AA36063
:1016B00023681A44226095E729465A4600F018F933
:1016C000236821465B4440462360FFF743FE002821
:1016D00088D05AE7404600F0F1F9034600287FF42D
:1016E00022AF4046216900F083F90C22B4F90C3096
:1016F000C8F8002023F0800349E7721C914659E79F
:101700000C22B4F90C30C8F8002040E74FF0FF304D
:10171000BCE600BF00FCFF7F38B50C461146002236
:101720008446074D20462A601A46644607F060F951
:10173000431C00D038BD2B68002BFBD0236038BD84
:101740004C010020F0B58B890C46990797B007D55E
:10175000012204F14703C4E90432236017B0F0BD4D
:10176000B4F90E10054600292DDB6A4600F0E4F9B5
:10177000002827DB019E4FF4806706F47046A6F52B
:101780000056B6FA86F6394628467609FFF720F85D
:1017900030B3A3891A4A43F08003AA62C4E904075C
:1017A000A3812060002ED9D02846B4F90E1000F095
:1017B000D7F90028D2D0A38923F0030343F0010313
:1017C000A381CBE7A38913F0800F14BF40274FF408
:1017D0008067284639460026FEF7FAFF0028D8D150
:1017E000B4F90C309A05B9D4012123F0030304F1B4
:1017F000470243F00203C4E90421A3812260ADE75C
:101800001D05000870B50C46B1F90E1016460029EA
:101810001D4696B013DB6A4600F08EF900280EDBF9
:1018200001994FF4806301F47041A1F50051B1FAC0
:1018300081F1002049092960336016B070BD002293
:10184000B4F90C302A601B0604D540230020336015
:1018500016B070BD4FF480630020336016B070BDC9
:101860005FFA81FC810710D00346511E2AB90AE0B5
:101870009A0718460AD0013905D3184613F8012BE8
:101880006245F5D1704700207047114603290CD8F6
:101890000029F8D00346014401E08B42F3D01846FA
:1018A00013F8012B6245F8D1ECE7024610B54CEA7B
:1018B0000C2444EA04441046036804326340A3F154
:1018C000013E2EEA030313F0803F04D104390329BB
:1018D0001046F0D851B10346014401E08B4205D0D7
:1018E000184613F8012B6245F8D110BD002010BD39
:1018F00088420DD98B1883420AD900EB020CBAB189
:10190000624613F801CD994202F801CDF9D1704732
:101910000F2A0ED8034602F1FF3C4AB10CF1010C2C
:10192000013B8C4411F8012B614503F8012FF9D1DB
:10193000704740EA01039B074FD1A2F1100370B535
:1019400001F1200C23F00F0501F1100E00F110043D
:10195000AC441B095EF8105C0EF1100E44F8105CEC
:101960005EF81C5C103444F81C5C5EF8185C44F8AB
:10197000185C5EF8145CE64544F8145CEAD1013367
:1019800012F00C0F01EB031102F00F0400EB031334
:1019900027D08E46043C24F003064FEA940C1E44E4
:1019A0001C1F5EF8045B44F8045FB442F9D10CF1EB
:1019B000010402F0030203EB840301EB840102F152
:1019C000FF3C4AB10CF1010C013B8C4411F8012B96
:1019D000614503F8012FF9D170BD034602F1FF3CC8
:1019E0009CE72246EBE700BF704700BF704700BF8F
:1019F000002952D038B551F8043C0C1F002BB8BF59
:101A0000E4180546FFF7F0FF2B4A1368002B45D07A
:101A1000A3420CD921686018834228D0636028460D
:101A20001460BDE83840FFF7E1BFA3420FD81A4663
:101A30005B68002BF9D11168501884421DD034D353
:101A4000636054602846BDE83840FFF7CFBF116897
:101A50005018A04215D028D8216860188342EFD1D1
:101A600018685B680144C4E900135460EAE7186829
:101A70005B680144C4E90013D1E72368194411608D
:101A8000E0E720680144501883421160DAD1D3E9BD
:101A900000030144C2E90013D4E77047284663609D
:101AA0001460BDE83840FFF7A1BF0C2328462B6027
:101AB000BDE83840FFF79ABF44010020F8B514464E
:101AC000F9B1CAB106460D4600F05CF8A04202D357
:101AD0002F463846F8BD21463046FEF779FE0746C8
:101AE0000028F6D022462946FEF7F0FB304629466C
:101AF000FFF77EFF3846F8BD2746FFF779FF3846E7
:101B0000F8BD1146BDE8F840FEF762BE38B50C4698
:101B1000114600228446074D20462A601A46644634
:101B200006F018FF431C00D038BD2B68002BFBD0FB
:101B3000236038BD4C01002070B50026074D0446D7
:101B4000084611462E6006F04CFF431C00D070BDC5
:101B50002B68002BFBD0236070BD00BF4C01002020
:101B6000002238B5064D044608462A6006F03EFFBE
:101B7000431C00D038BD2B68002BFBD0236038BD40
:101B80004C01002051F8040C0028A0F10400BCBF57
:101B90000B58C018704700BF81F0004102E000BF41
:101BA00083F0004330B54FEA41044FEA430594EA1D
:101BB000050F08BF90EA020F1FBF54EA000C55EA58
:101BC000020C7FEA645C7FEA655C00F0E2804FEA29
:101BD0005454D4EB5555B8BF6D420CDD2C4480EA0B
:101BE000020281EA030382EA000083EA010180EA3B
:101BF000020281EA0303362D88BF30BD11F0004F89
:101C00004FEA01314FF4801C4CEA113102D04042BE
:101C100061EB410113F0004F4FEA03334CEA1333F9
:101C200002D0524263EB430394EA050F00F0A78011
:101C3000A4F10104D5F1200E0DDB02FA0EFC22FA0C
:101C400005F2801841F1000103FA0EF2801843FA00
:101C500005F359410EE0A5F120050EF1200E012AF1
:101C600003FA0EFC28BF4CF0020C43FA05F3C0182F
:101C700051EBE37101F0004507D54FF0000EDCF1A8
:101C8000000C7EEB00006EEB0101B1F5801F1BD351
:101C9000B1F5001F0CD349085FEA30004FEA3C0C55
:101CA00004F101044FEA445212F5800F80F09A804B
:101CB000BCF1004F08BF5FEA500C50F1000041EB4F
:101CC000045141EA050130BD5FEA4C0C404141EB53
:101CD0000101013C28BFB1F5801FE9D291F0000F4E
:101CE00004BF01460020B1FA81F308BF2033A3F1FD
:101CF0000B03B3F120020CDA0C3208DD02F1140CF4
:101D0000C2F10C0201FA0CF021FA02F10CE002F12E
:101D10001402D8BFC2F1200C01FA02F120FA0CFC27
:101D2000DCBF41EA0C019040E41AA2BF01EB045170
:101D3000294330BD6FEA04041F3C1CDA0C340EDC6E
:101D400004F11404C4F1200220FA04F001FA02F3B1
:101D500040EA030021FA04F345EA030130BDC4F16F
:101D60000C04C4F1200220FA02F001FA04F340EA64
:101D70000300294630BD21FA04F0294630BD94F015
:101D8000000F83F4801306BF81F480110134013DFC
:101D90004EE77FEA645C18BF7FEA655C29D094EA6D
:101DA000050F08BF90EA020F05D054EA000C04BFEB
:101DB0001946104630BD91EA030F1EBF00210020D6
:101DC00030BD5FEA545C05D14000494128BF41F075
:101DD000004130BD14F580043CBF01F5801130BDD9
:101DE00001F0004545F0FE4141F470014FF0000064
:101DF00030BD7FEA645C1ABF194610467FEA655C15
:101E00001CBF0B46024650EA013406BF52EA0335B6
:101E100091EA030F41F4002130BD00BF90F0000FA4
:101E200004BF0021704730B54FF4806404F13204E0
:101E30004FF000054FF0000150E700BF90F0000F99
:101E400004BF0021704730B54FF4806404F13204C0
:101E500010F0004548BF40424FF000013EE700BF90
:101E600042004FEAE2014FEA31014FEA02701FBF20
:101E700012F07F4393F07F4F81F06051704732F052
:101E80007F4208BF704793F07F4F04BF41F40021A9
:101E9000704730B54FF4607401F0004521F0004107
:101EA0001CE700BF50EA010208BF704730B54FF091
:101EB00000050AE050EA010208BF704730B511F092
:101EC000004502D5404261EB41014FF4806404F1CA
:101ED00032045FEA915C3FF4D8AE4FF003025FEA50
:101EE000DC0C18BF03325FEADC0C18BF033202EBD4
:101EF000DC02C2F1200300FA03FC20FA02F001FA2E
:101F000003FE40EA0E0021FA02F11444BDE600BFD0
:101F10004FEA4102B2F1E04324BFB3F5001CDCF10B
:101F2000FE5C0DD901F0004C4FEAC0024CEA507043
:101F3000B2F1004F40EB830008BF20F00100704772
:101F400011F0804F21D113F13872BCBF01F0004075
:101F5000704741F480114FEA5252C2F11802C2F1A7
:101F6000200C10FA0CF320FA02F018BF40F0010028
:101F70004FEAC1234FEAD32303FA0CFC40EA0C00DA
:101F800023FA02F34FEA4303CCE77FEA625307D117
:101F900050EA01331EBF4FF0FE4040F4400070474E
:101FA00001F0004040F0FE4040F40000704700BFE8
:101FB00080F0004002E000BF81F0004142001FBFFE
:101FC0005FEA410392EA030F7FEA226C7FEA236C07
:101FD0006AD04FEA1262D2EB1363C1BFD2184140FC
:101FE00048404140B8BF5B42192B88BF704710F092
:101FF000004F40F4000020F07F4018BF404211F035
:10200000004F41F4000121F07F4118BF494292EA9C
:10201000030F3FD0A2F1010241FA03FC10EB0C00C8
:10202000C3F1200301FA03F100F0004302D5494255
:1020300060EB4000B0F5000F13D3B0F1807F06D302
:1020400040084FEA310102F10102FE2A51D2B1F1FA
:10205000004F40EBC25008BF20F0010040EA0300EF
:102060007047490040EB0000013A28BFB0F5000F6F
:10207000EDD2B0FA80FCACF1080CB2EB0C0200FA25
:102080000CF0AABF00EBC25052421843BCBFD04074
:102090001843704792F0000F81F4000106BF80F4EE
:1020A00000000132013BB5E74FEA41037FEA226CB1
:1020B00018BF7FEA236C21D092EA030F04D092F07C
:1020C000000F08BF0846704790EA010F1CBF0020B0
:1020D000704712F07F4F04D1400028BF40F000400D
:1020E000704712F100723CBF00F50000704700F02D
:1020F000004343F0FE4040F4000070477FEA226254
:1021000016BF08467FEA23630146420206BF5FEA24
:10211000412390EA010F40F4800070474FF0000324
:1021200004E000BF10F0004348BF40425FEA000CEB
:1021300008BF704743F0964301464FF000001CE093
:1021400050EA010208BF70474FF000030AE000BFE9
:1021500050EA010208BF704711F0004302D5404227
:1021600061EB41015FEA010C02BF84460146002099
:1021700043F0B64308BFA3F18053A3F50003BCFAB4
:102180008CF2083AA3EBC25310DB01FA02FC634461
:1021900000FA02FCC2F12002BCF1004F20FA02F268
:1021A00043EB020008BF20F00100704702F120025B
:1021B00001FA02FCC2F1200250EA4C0021FA02F2BC
:1021C00043EB020008BF20EADC7070474FF0FF0CC1
:1021D0001CEAD0521EBF1CEAD15392EA0C0F93EABC
:1021E0000C0F6FD01A4480EA010C400218BF5FEA5E
:1021F00041211ED04FF0006343EA501043EA5111D1
:10220000A0FB01310CF00040B1F5000F3EBF4900CA
:1022100041EAD3715B0040EA010062F17F02FD2ACE
:102220001DD8B3F1004F40EBC25008BF20F00100B1
:10223000704790F0000F0CF0004C08BF49024CEAC8
:10224000502040EA51207F3AC2BFD2F1FF0340EA5A
:10225000C250704740F400004FF00003013A5DDCCB
:1022600012F1190FDCBF00F000407047C2F100020C
:10227000410021FA02F1C2F1200200FA02FC5FEAF9
:10228000310040F1000053EA4C0308BF20EADC7043
:10229000704792F0000F00F0004C02BF400010F4B5
:1022A000000F013AF9D040EA0C0093F0000F01F062
:1022B000004C02BF490011F4000F013BF9D041EA84
:1022C0000C018FE70CEAD15392EA0C0F18BF93EA86
:1022D0000C0F0AD030F0004C18BF31F0004CD8D1B0
:1022E00080EA010000F00040704790F0000F17BF37
:1022F00090F0004F084691F0000F91F0004F14D07D
:1023000092EA0C0F01D142020FD193EA0C0F03D1D4
:102310004B0218BF084608D180EA010000F00040D7
:1023200040F0FE4040F40000704740F0FE4040F4B2
:10233000400070474FF0FF0C1CEAD0521EBF1CEA51
:10234000D15392EA0C0F93EA0C0F69D0A2EB03026F
:1023500080EA010C49024FEA402037D04FF0805309
:1023600043EA111143EA10130CF000408B4238BFCE
:102370005B0042F17D024FF4000C8B4224BF5B1ADC
:1023800040EA0C00B3EB510F24BFA3EB510340EA2A
:102390005C00B3EB910F24BFA3EB910340EA9C00D8
:1023A000B3EBD10F24BFA3EBD10340EADC001B0148
:1023B00018BF5FEA1C1CE0D1FD2A3FF650AF8B42EC
:1023C00040EBC25008BF20F0010070470CF0004CF9
:1023D0004CEA50207F32C2BFD2F1FF0340EAC25024
:1023E000704740F400004FF00003013A37E792F0E5
:1023F000000F00F0004C02BF400010F4000F013A43
:10240000F9D040EA0C0093F0000F01F0004C02BF3D
:10241000490011F4000F013BF9D041EA0C0195E7A6
:102420000CEAD15392EA0C0F08D142027FF47DAF3F
:1024300093EA0C0F7FF470AF084676E793EA0C0F2F
:1024400004D14B023FF44CAF08466EE730F0004C2D
:1024500018BF31F0004CCAD130F000427FF45CAFBD
:1024600031F000437FF43CAF5FE700BF4FF0FF3C2B
:1024700006E000BF4FF0010C02E000BF4FF0010C7E
:102480004DF804CD4FEA40024FEA41037FEA226C47
:1024900018BF7FEA236C11D001B052EA530C18BF69
:1024A00090EA010F58BFB2EB030088BFC81738BFCE
:1024B0006FEAE17018BF40F0010070477FEA226CBC
:1024C00002D15FEA402C05D17FEA236CE4D15FEAB8
:1024D000412CE1D05DF8040B704700BF84460846EC
:1024E0006146FFE70FB5FFF7C9FF002848BF10F1AD
:1024F000000F0FBD4DF808EDFFF7F4FF0CBF0120F2
:1025000000205DF808FB00BF4DF808EDFFF7EAFF7B
:1025100034BF012000205DF808FB00BF4DF808ED36
:10252000FFF7E0FF94BF012000205DF808FB00BF2B
:102530004DF808EDFFF7D2FF94BF012000205DF8B1
:1025400008FB00BF4DF808EDFFF7C8FF34BF0120BE
:1025500000205DF808FB00BF4FEA4002B2F1FE4FD9
:102560000FD34FF09E03B3EB12620DD94FEA002355
:1025700043F0004310F0004F23FA02F018BF40422E
:1025800070474FF00000704712F1610F01D1420215
:1025900005D110F0004008BF6FF0004070474FF0C9
:1025A000000070477BB972B90029BEBF00204FF010
:1025B000004106E008BF00281CBF6FF000414FF04B
:1025C000FF3000F0C1B9ADF1080C6DE904CE00296F
:1025D00009DB002B1ADB00F04DF8DDF804E0DDE943
:1025E000022304B07047404261EB4101002B1BDB2A
:1025F00000F040F8DDF804E0DDE9022304B04042D9
:1026000061EB4101524263EB43037047524263EB7B
:10261000430300F02FF8DDF804E0DDE9022304B005
:10262000404261EB41017047524263EB430300F0CB
:1026300021F8DDF804E0DDE9022304B0524263EB47
:102640004303704753B94AB9002908BF00281CBF8B
:102650004FF0FF314FF0FF3000F076B9ADF1080CCC
:102660006DE904CE00F006F8DDF804E0DDE90223B0
:1026700004B070472DE9F047089E0D460446884691
:10268000002B4DD18A42944668D9B2FA82F252B1F7
:1026900001FA02F3C2F1200120FA01F10CFA02FC66
:1026A00041EA030894404FEA1C41B8FBF1F71FFAD6
:1026B0008CFE01FB178807FB0EF0230C43EA08434E
:1026C00098420AD91CEB030307F1FF3580F01E8105
:1026D000984240F21B81023F63441B1AB3FBF1F0A6
:1026E00001FB103300FB0EFEA4B244EA0344A645EE
:1026F0000AD91CEB040400F1FF3380F00981A645E0
:1027000040F20681644402380021A4EB0E0440EA42
:1027100007401EB10023D440C6E90043BDE8F0875E
:102720008B4208D9002E00F0EE800021C6E900059A
:102730000846BDE8F087B3FA83F100294AD1AB42DD
:1027400002D3824200F2FC80841A65EB030301206D
:102750009846002EE2D0C6E90048DFE702B9FFDE66
:10276000B2FA82F2002A40F09180A1EB0C00012124
:102770004FEA1C471FFA8CFEB0FBF7F307FB130070
:10278000250C45EA00450EFB03F0A84208D91CEBD6
:10279000050503F1FF3802D2A84200F2CE8043467D
:1027A0002D1AB5FBF7F007FB10550EFB00FEA4B287
:1027B00044EA0544A64508D91CEB040400F1FF35A2
:1027C00002D2A64500F2B6802846A4EB0E0440EAE9
:1027D00003409EE7C1F120078B4022FA07FC4CEA38
:1027E000030C25FA07FA4FEA1C49BAFBF9F820FA5C
:1027F00007F309FB18AA8D401FFA8CFE1D4300FA4F
:1028000001F308FB0EF02C0C44EA0A44A04202FA41
:1028100001F20BD91CEB040408F1FF3A80F0888028
:10282000A04240F28580A8F102086444241AB4FB57
:10283000F9F009FB104400FB0EFEADB245EA04447A
:10284000A64508D91CEB040400F1FF356CD2A6455F
:102850006AD90238644440EA0840A0FB0295A4EB20
:102860000E04AC42C846AE4656D353D0002E69D0B3
:10287000B3EB080264EB0E0422FA01F304FA07F743
:102880001F43CC40C6E90074002147E70CFA02FC64
:10289000C2F1200125FA01F34FEA1C4720FA01F1A9
:1028A00095400D43B3FBF7F107FB11331FFA8CFE84
:1028B000280C40EA034001FB0EF3834204FA02F4C1
:1028C00008D91CEB000001F1FF382FD283422DD92B
:1028D00002396044C01AB0FBF7F307FB1300ADB236
:1028E00045EA004503FB0EF0A84208D91CEB05059C
:1028F00003F1FF3816D2A84214D9023B6544281AC6
:1029000043EA014138E73146304607E72F46E4E61F
:102910001846F9E64B45A9D2B9EB020865EB0C0E57
:102920000138A3E74346EAE7284694E74146D1E762
:10293000D0467BE76444023847E7023B65442FE713
:10294000084606E73146E9E6704700BF03460A46F7
:1029500002490868194600F073B800BF0000002063
:1029600003460A4602490868194600F011B800BF3C
:102970000000002000B5054B83B0014601AA18688D
:1029800000F006F803B05DF804FB00BF0000002073
:102990002DE9F047DFF8748006468946174600F0B7
:1029A0009DFED8F8005055B199F800301C4673B11F
:1029B0004C4602E014F8013F3BB13D2BFAD13046C2
:1029C00000F08EFE0020BDE8F087A4EB0904286823
:1029D0000028F4D02246494600F0E4FA28B92B68D2
:1029E0001A5D03EB040A3D2A04D055F8040F0028B1
:1029F000F0D1E4E7D8F800303046ED1AAD103D6074
:102A000000F06EFE0AF10100BDE8F08774000020BE
:102A100000B583B001AAFFF7BBFF03B05DF804FB6C
:102A2000024B01461868FDF7D3BE00BF000000202E
:102A3000024B01461868FEF7DBBF00BF0000002014
:102A400038B502FB01F52946FDF7C2FE044618B170
:102A50002A460021FDF7B0FC204638BD38B5124BA0
:102A600004461D68AA6B1AB10023C2E9044338BDAD
:102A70001820FFF7D5FF0246A86378B100210B2389
:102A800001209381C2E90401084B0949094DC2E9BB
:102A9000011300231560C2E9044338BD4221064BEF
:102AA000064800F0F5FD00BF00000020ECDE050048
:102AB00034126DE60E33CDAB0061010818610108D8
:102AC00038B5194B1C68A26B8AB113691749546950
:102AD00003FB01F1164800FB0411A3FB0030013396
:102AE00041EB0001C2E9043121F0004038BD18205B
:102AF000FFF796FF0246A06388B1012400250B234F
:102B00000A480C49C2E90445116001460A4D0B4CC4
:102B100093810B4BC2E90154C2E9043138BD4E2107
:102B2000084B094800F0B4FD000000202DF4515876
:102B30002D7F954C0E33CDAB34126DE6ECDE0500E7
:102B40002E7F954C006101081861010803460A4672
:102B5000024908681946FEF7B1BF00BF0000002017
:102B600008B410B5002A04469DB031DB4FF402735F
:102B70004FF6FF7CADF814300291069120AB15D0D2
:102B8000013A0492079202A91F9A0193ADF816C068
:102B900000F0DEFE421C01DA8B2323600022029B40
:102BA0001A701DB0BDE8104001B070470492079242
:102BB00002A91F9A0193ADF816C000F0C9FE431C8C
:102BC00001DA8B2323601DB0BDE8104001B07047CF
:102BD0008B234FF0FF302360F5E700BF0CB410B536
:102BE0001E4B00291C689CB033DB4FF402734FF678
:102BF000FF7CADF81430029006901FAB16D001395F
:102C00001E9A04910791204602A90193ADF816C0BF
:102C100000F09EFE421C01DA8B2323600022029BFF
:102C20001A701CB0BDE8104002B0704704910791C3
:102C300020461E9A02A90193ADF816C000F088FE46
:102C4000431C01DA8B2323601CB0BDE8104002B0A6
:102C500070478B234FF0FF302360F5E70000002022
:102C600011F0FF01034644D0820732D110B5046849
:102C700041EA012E4EEA0E4E8EEA0402A2F1013321
:102C800023EA0203A4F1013222EA0402134313F0FF
:102C9000803F0FD150F8044F84EA0E0CA4F10133A9
:102CA000ACF1013223EA040322EA0C02134313F0CD
:102CB000803FEFD0037823B936E010F8013F002BB6
:102CC00032D09942F9D110BD8A4211D09A071846E4
:102CD000CCD0184613F8012B002AF5D110467047C6
:102CE0009907184607D0184602780133002AF7D111
:102CF00070478207F7D10268A2F1013323EA020389
:102D000013F0803F08D150F8042FA2F1013323EAD9
:102D1000020313F0803FF6D00378002BE8D010F8C0
:102D2000013F002BFBD17047184610BD80EA010C13
:102D30001CF0030F37D110F0030C20F0030021F03A
:102D4000030150F8042B08BF51F8043B0ED08CF05F
:102D5000030C6FF07F434FEACC0C23FA0CFC51F8C4
:102D6000043B42EA0C0243EA0C0300BFA2F1013C1F
:102D70009A4201BF2CEA020C1CF0803F50F8042B51
:102D800051F8043BF2D04FEA02604FEA12220128C8
:102D900028BFB0EB036F08BF1B0AF4D003F0FF039A
:102DA000000EC01A704710F0030F0AD010F8012B64
:102DB00011F8013B012A28BF9A42F4D0A2EB03008C
:102DC00070474DF8045D50F8042B01F0030521F025
:102DD000030151F8043B022D26D04DD822F07F4547
:102DE000B5EB132FA2F1013C2CEA020C0DD11CF023
:102DF000803C08BF51F8043B0AD185EA0205B5EBD7
:102E0000036F0CD150F8042BE8E74FEA13235BE083
:102E10003CF07F4C54D10B784FEA126554E04FEAF6
:102E2000126503F0FF034FE04FEA0245A2F1013CB7
:102E30004FEA15452CEA020CB5EB134F18D11CF0E4
:102E4000803C08BF51F8043B07D185EA0205B5EB89
:102E5000034F09D150F8042BE6E75FEA0C4C2FD161
:102E60000B884FEA12452FE04FEA03434FEA124521
:102E70004FEA134328E000BF02F0FF05B5EB136FE4
:102E8000A2F1013C2CEA020C0DD11CF0803C08BFE1
:102E900051F8043B0AD185EA0205B5EB032F0AD1AC
:102EA00050F8042BE8E74FEA13630DE012F0FF0F30
:102EB00006D051F8043B4FEA122523F07F4303E08C
:102EC0004FF0000020BC704705F0FF0203F0FF0048
:102ED000012828BF904204BF2D0A1B0AF4D0A2EBA0
:102EE000000020BC704700BF80EA0102844612F057
:102EF000030F4FD111F0030F32D14DF8044D11F0F3
:102F0000040F51F8043B0BD0A3F101329A4312F0A5
:102F1000803F04BF4CF8043B51F8043B16D100BF7E
:102F200051F8044BA3F101329A4312F0803FA4F10F
:102F300001320BD14CF8043BA24312F0803F04BF96
:102F400051F8043B4CF8044BEAD023460CF8013B03
:102F500013F0FF0F4FEA3323F8D15DF8044B7047AD
:102F600011F0010F06D011F8012B0CF8012B002AEB
:102F700008BF704711F0020FBFD031F8022B12F0DA
:102F8000FF0F16BF2CF8022B8CF8002012F47F4F95
:102F9000B3D1704711F8012B0CF8012B002AF9D19D
:102FA000704700BFA2B330B540EA0104A4078646CB
:102FB0000B462AD004780B78A3422FD1012A0CD0DB
:102FC000844654B11CF8014F11F8013F9C4225D1B1
:102FD0006FEA0C031344C318F3D1002030BD194627
:102FE000DEF800407046A4F1013323EA040C0B46DE
:102FF00053F8045B0EF1040EAC420BD1043AECD052
:103000001CF0803FE9D170461946032AE7D8D1E782
:103010001046704704780B789C42D1D0E01A30BD3E
:103020002DE9F04F012B1D4681460F469046ADF22B
:103030001C4D40F24781012300219C464FF0FF3494
:103040001A4606E019460122A3EB040C8B189D4298
:1030500010D908EB0400805C18F803608642F1D3B5
:1030600000F081804FF0010C62460C4661448B18E1
:103070009D42EED8CDF808C04FF0010C00204FF073
:10308000FF366146634606E018460121A3EB060CB5
:1030900043189D420FD908EB010218F803E0925D36
:1030A0009645F1D865D04FF0010C61460646604464
:1030B00043189D42EFD8013604F1010BB34502D805
:1030C000B346CDF808C005AB0DF2144243F8045FD7
:1030D0009342FBD1002D00F0FA806C1E06AE08F181
:1030E000FF3208EB0400019612F8011FD3432B4472
:1030F0004344904246F82130F6D1029E5A4640465B
:1031000008EB060100F010FB002840F083800BF173
:10311000FF3305938246AB1B0646039309EB060E6D
:103120001EF80430019A52F8233043B3BAF1000F6D
:1031300004D0029A9342039A38BF13464FF0000A14
:103140001E447B1BB342E9D209EB070045F4006142
:1031500000F018FD07447B1BB342DFD200200DF2C4
:103160001C4DBDE8F08F94450ABF01220132614435
:103170006CE761450ABF40180131012188E7D3455A
:103180005B4638BF5346A34214D2591E9A19414494
:103190004A4402E00133A3420CD212F8010B11F8A9
:1031A00001CF8445F6D0CBF1010216444FF0000A5E
:1031B0001E44C6E7D345059B7DD90BEB06024A4466
:1031C00008EB0B01CDF810B002E0534516D00346D2
:1031D00012F8010D11F801CD03F1010B844503F143
:1031E000FF30F2D05B46DDF810B00AF1010A9A45D3
:1031F0000BD8029BDDF80CA01E44A2E753460AF14F
:10320000010A9A45DDF810B0F3D970460DF21C4D55
:10321000BDE8F08FA5EB0B035B4538BF5B4600268E
:103220000BF1FF3202920133CBF10102039245F41C
:10323000006A049309EB060E1EF80430019A52F856
:1032400023306BB11E447B1B9E42F3D909EB070070
:10325000514600F097FC07447B1B9E42EAD97DE76C
:10326000A34513D202990BEB06025B464A44414444
:1032700002E00133A34209D212F8010B11F801CF89
:103280008445F6D0039A16441E44DCE7BBF1000FD8
:1032900013D00BEB0601494408EB0B0202E0013BA3
:1032A00043450AD0134611F8010D12F801CD8445AB
:1032B000F5D0049BC6E75B4697E770460DF21C4DC0
:1032C000BDE8F08F01234FF0000B0293FBE606AB45
:1032D0004FF0FF34019310E72DE9F0410D460978D6
:1032E000044690B0002953D06A78002A00F0838009
:1032F000AB78002B50D0E878002800F083802B7941
:10330000002B57D02846FDF7D9F80646204646F44C
:10331000007100F037FC86425CD8FE2E00F28780F8
:10332000801B271840226846711CFDF745F87EB1C6
:103330006A1E5FFA86FC901912F8013F03F03F0302
:103340004033A91A6B446144824203F8401CF3D114
:10335000013CA35D03F03F0340336B4413F8400C82
:103360000444A74203D23AE04444A74237D314F8B6
:1033700006C020460CF03F0C0CF140030DEB030C93
:10338000324629461CF8408C00F0CEF90028EBD1DB
:10339000204610B0BDE8F081007842EA014200E02A
:1033A0000C4640EA0343611CA0B19A426078F7D111
:1033B000013CEDE722786AB1296809BA01E0994237
:1033C0001ED0204642EA032314F8012F002AF6D12A
:1033D000994215D00024204610B0BDE8F081BB5DB5
:1033E000B819002BF6D04FF4006100F0CBFB074476
:1033F000BC42ADD9EEE710B0BDE8F041FFF730BCFC
:10340000C41EC5E7120442EA016242EA03230146F0
:10341000207800E02C4640EA0102651C11020028D9
:10342000D8D0B3EB022F6078F4D1023CB0E701466C
:1034300033462A46204610B0BDE8F041F0E500BF13
:103440002DE9F04707460E464A4D304616F801CBA7
:1034500015F80C4014F00804F7D1BCF12D0FE64626
:1034600058D0BCF12B0F04BF96F800E0861C5BB16E
:10347000102B54D04FF0FF38B8FBF3F803FB08FAD9
:1034800099466FEA0A0A08E0BEF1300F5AD00A23C3
:103490004FF0050A9946DFF8E0800025284607E04E
:1034A000404515D829D0012509FB00C016F801EBCD
:1034B000AEF1300CBCF1090F06D9AEF1410CBCF1F4
:1034C000190F08D8AEF1370C63450DDD002DE7DA92
:1034D0004FF0FF35EAE7AEF1610CBCF1190F03D8EC
:1034E000AEF1570C6345F1DC002D0BDB04B140421B
:1034F0000AB16DB91160BDE8F087D445D3DD4FF056
:10350000FF35D3E722234FF0FF303B60002AF2D093
:10351000711EEFE796F800E00124861CA7E7BEF1D4
:10352000300F21D1307800F0DF00582816D14FF04D
:10353000100996F801E04FF00F0A6FF070484B4603
:103540000236AAE7337803F0DF03582BEFD00823C5
:103550004FF0070A6FF0604899469EE799466FF072
:1035600070484FF00F0A98E74FF00F0A6FF070485D
:10357000994692E7895401089999991960E700BF23
:103580008C4600B586461346034A714610685DF8BE
:1035900004EB624654E700BF000000208C4600B5F3
:1035A00086461346034A714610685DF804EB62468E
:1035B00046E700BF0000002010B5194C0029246820
:1035C0009AB028DB009004904FF402704FF6FF7C15
:1035D000ADF80C0011D001390291059120466946E1
:1035E000ADF80EC000F0B4F9421C01DA8B23236061
:1035F0000022009B1A701AB010BD0291059120465E
:103600006946ADF80EC000F0A3F9431C01DA8B2324
:1036100023601AB010BD8B234FF0FF302360F8E712
:103620000000002030B51446002C05469BB029DB75
:103630001A464FF402734FF6FF7C00910491ADF8E7
:103640000C3011D0013C69461E9B02940594ADF8E4
:103650000EC000F07DF9421C01DA8B232B600022A2
:10366000009B1A701BB030BD1E9B694602940594E6
:10367000ADF80EC000F06CF9431C01DA8B232B600F
:103680001BB030BD8B234FF0FF302B60F8E700BF3D
:10369000144600B51A460A4B0D461B6885B0DE6815
:1036A00003464CB107490191304607490294009501
:1036B00000F026F800F078FA04490C46F3E700BF62
:1036C000000000204C6101085C610108586101089C
:1036D00008B513460022FFF7DBFF00BF704700BFAD
:1036E000704700BF0CB400B583B004AB53F8042B93
:1036F0000193FDF703F903B05DF804EB02B07047E6
:103700000EB400B5074A82B003AB0146106853F807
:10371000042B0193FDF7F2F802B05DF804EB03B05F
:10372000704700BF00000020032A10B516D940EAF8
:10373000010C1CF0030F04460B4622D1194620460B
:10374000D1F800E0D0F800C00433F44504F10404DB
:1037500017D1043A032A20461946EFD8541EA2B1C5
:1037600000F1FF3C013901E0C3180CD01CF801EF57
:1037700011F8012FA4EB0C039645F5D0AEEB020037
:1037800010BD541EECE7184610BD104610BD00BF1A
:103790002DE9F0478F680C469F421D46164638D8E3
:1037A0008246888910F4906F0ED13D4608682A46FB
:1037B0003146FEF79DF80020A2682368D21B2B44F7
:1037C000A2602360BDE8F0874B69096903EB4308F9
:1037D000236808EBD878A3EB01096B1C4FEA680853
:1037E0004B444345424684BF98464246430513D561
:1037F00011465046FCF7ECFF074608B34A462169DC
:10380000FCF764FDA38923F4906343F08003A38154
:1038100007E01F460868CAE75046FEF74FF907461B
:1038200050B107EB0900A8EB09032761C4F8148025
:103830002F46A3602060BAE750462169FEF7D8F80A
:103840000C23CAF80030A3894FF0FF3043F0400347
:10385000A381B7E72DE9F04F9368914683B0002B21
:103860006ED0176880460C4608688D68083744E0BB
:10387000B4F80CC01CF4906F2ED0D4E90413451A90
:1038800003EB430303EBD373AA194FEA630A531CF8
:103890005345524684BF9A4652461CF4806F36D038
:1038A00011464046FCF794FF00283AD02A46216989
:1038B0000190FCF70BFDA289019B22F4906242F07B
:1038C0008002A2815819AAEB0505A560C4F814A0CE
:1038D0003546B2462361206059465246FEF708F845
:1038E000D9F80830A16820684D1B50449E1BA56084
:1038F0002060C9F808601EB3083757E902B6002EE9
:10390000FAD0B542AA46B3D93546B246E4E74046B6
:10391000FEF7D4F803460028D4D140462169FEF7CB
:1039200067F80C2300224FF0FF30C8F80030A3895D
:1039300043F04003A381C9E9012203B0BDE8F08F41
:1039400000231846C9F8043003B0BDE8F08F00BF6B
:103950002DE9F04F1C468B890F461D068046924686
:103960009DB003D50B69002B00F0F3800023099371
:10397000302320228DF82A309AF800300394012554
:103980007B4C8DF82920002B76D0D14603E019F826
:10399000013F002B79D0252BF9D1B9EB0A0B77D158
:1039A00099F80020002A67D000234FF0FF3209F178
:1039B0000109CDE90523049307938DF853301A9339
:1039C00004E0001B05FA00F018430490CA460522E3
:1039D000204619F8011BFDF743FF049B0028F0D196
:1039E000D80644BF20228DF85320190748BF2B2248
:1039F0009AF8001048BF8DF853202A2956D1039A0F
:103A000011680432002903927EDB07919AF80110B5
:103A10000AF1010A2E295BD0DFF8589103224846AB
:103A2000FDF71EFF48B14022049BA0EB090002FAFB
:103A300000F003430AF1010A04931AF8011B06225D
:103A40004D488DF82810FDF70BFF002862D04B4B36
:103A5000002B52D003A900913A464046484B04A996
:103A6000AFF300800646721C06D0099B33440993CD
:103A70009AF80030002B88D1BB895B064CBF4FF011
:103A8000FF3009981DB0BDE8F08FB9EB0A0BF3D0F9
:103A90005B46524639464046FFF77AFE0130EBD08E
:103AA000099B99F800205B4409937BE7A1F1300260
:103AB000092AAFD8079B1AF8011F03EB830302EB17
:103AC0004303A1F13002092AF5D92E290793A3D186
:103AD0009AF801102A2927D1039B0AF102001A68DB
:103AE0000433002A0393B8BF4FF0FF339AF8021053
:103AF00005928246B8BF05938EE7039B073323F0F8
:103B0000070308330393B0E7494243F002030791E8
:103B100004937BE703A900913A464046184B04A959
:103B2000FDF7D8F806469EE70023A1F13002092AE6
:103B30000AF1010A05933FF66FAF1AF8011F03EB74
:103B4000830302EB4303A1F13002092AF5D905935F
:103B500062E74021FCF73CFE3860386110B1402339
:103B60007B6103E70C234FF0FF30C8F8003089E792
:103B700068570108705701087457010800000000D9
:103B80009137000871B1034600EB010C01E0634579
:103B900006D01A46117801330029F8D1101A70475F
:103BA000181A704708467047062008B500F09AF8C2
:103BB000012004F0C9FE00BF38B5446C0CB10020F0
:103BC00038BD80210546FCF703FE0246686430B12B
:103BD000031F7C3243F8044F9342FBD1EFE74FF0D1
:103BE000FF3038BD1F29F8B5054608D8466C0C468D
:103BF00017464EB156F8240046F82470F8BD162337
:103C00004FF0FF302B60F8BD8021FCF7E1FD064648
:103C1000686440B10021031F00F17C0543F8041FD4
:103C20009D42FBD1E6E74FF0FF30F8BD1F2938B5C4
:103C3000054620D8426C0C466AB152F8213053B187
:103C4000012B16D0591C10D00025204642F82450D4
:103C50009847284638BD284600F0F8F82246014625
:103C60002846BDE8384000F0DDB8162301202B605F
:103C700038BD002038BD16234FF0FF302B6038BD13
:103C80001F292BD8426C38B50C46054682B152F834
:103C9000243002EB84024BB1591C1AD0012B16D0F0
:103CA0000025204615609847284638BD012038BDBC
:103CB0008021FCF78DFD0246686460B10020131F6F
:103CC00002F17C0143F8040F9942FBD1DFE70320A6
:103CD00038BD022038BD4FF0FF3038BD4FF0FF3007
:103CE000704700BF38B5144B1F281D681FD86A6C79
:103CF000044662B152F820304BB1012B15D0591C4B
:103D00000FD0002542F820509847284638BD284655
:103D100000F09CF8224601462846BDE8384000F0F5
:103D200081B8162301202B6038BD002038BD162332
:103D30004FF0FF302B6038BD00000020124B1F28D1
:103D400070B51E6808D80D46716C044649B151F82B
:103D5000240041F8245070BD16234FF0FF3033602B
:103D600070BD80213046FCF733FD0146706440B1E0
:103D70000022031F00F17C0C43F8042F6345FBD1A4
:103D8000E5E74FF0FF3070BD0000002038B50B4B69
:103D90001D686C6C0CB1002038BD80212846FCF7F2
:103DA00017FD686438B1031F00F17C0243F8044F2B
:103DB0009342FBD1EFE74FF0FF3038BD0000002009
:103DC00038B5174B1F281D6827D86A6C044682B186
:103DD00052F8243002EB84024BB1591C1BD0012B4A
:103DE00017D00025204615609847284638BD012089
:103DF00038BD80212846FCF7EBFC0246686460B1C0
:103E00000020131F02F17C0143F8040F8B42FBD109
:103E1000DEE7032038BD022038BD4FF0FF3038BD4B
:103E20000000002070B50026074D044608461146E4
:103E30002E6004F081FD431C00D070BD2B68002B68
:103E4000FBD0236070BD00BF4C01002004F072BDA8
:103E500008B50268034B9A4200D008BD01F04EFA43
:103E6000FBE700BF002C014072B6FEE700B591B041
:103E70002822002106A8FCF79FFA00230193029351
:103E8000039304930593012206924FF48033079322
:103E90000A9202220D920E934FF4E0130F9306A89C
:103EA00001F054FA80B90F230193022102910023FB
:103EB00003934FF480620492059301A801F078FC0B
:103EC00020B911B05DF804FBFFF7CEFFFFF7CCFF80
:103ED00008B501F001FAFFF7C9FF00F015F800F08E
:103EE00019F900F039F900F06BF900F09FF900F0D2
:103EF000D1F900F0EDFA00F07BFB04F0AFF900F02F
:103F0000B9F804F0BDF9FEE72DE9F04389B00024CB
:103F10000494059406940794484B9A6942F0100261
:103F20009A619A6902F010020092009A9A6942F02E
:103F300080029A619A6902F080020192019A9A695C
:103F400042F004029A619A6902F004020292029A13
:103F50009A6942F008029A619B6903F0080303938F
:103F6000039BDFF8DC9001222021484601F03AFE55
:103F7000DFF8D08022463C21404601F033FE324E2D
:103F800001224FF44061304601F02CFE2F4F2246B3
:103F90004FF41061384601F025FE01224FF4C06154
:103FA000384601F01FFE22463021304601F01AFE4D
:103FB000202304930125059506950224079404A95E
:103FC000484601F0EFFC3C230493059506940794C2
:103FD00004A9404601F0E6FC4FF4406304934FF01F
:103FE0001109CDF8149006954FF00308CDF81C8008
:103FF00004A9304601F0D6FC4FF4106304930595F4
:104000000694079404A9384601F0CCFC4FF4C06331
:104010000493CDF814900695CDF81C8004A9384679
:1040200001F0C0FC3023049305950694079404A97D
:10403000304601F0B7FC09B0BDE8F0830010024043
:10404000001C014000100140000C0140000801402C
:1040500008B5012004F098F9FBE7704770470000AD
:1040600008B52021014801F0C3FDFAE7001C01401A
:104070007047704708B5154A0021154804F026F925
:10408000144B1860144A0021144804F01FF9144B13
:104090001860144A0021144804F018F9134B1860F2
:1040A000134A0021134804F011F9134B1860134A06
:1040B0000021134804F00AF9124B1860124A00213B
:1040C000124804F003F9124B186008BD08560108A5
:1040D000514000080C06002098560108319600084F
:1040E0006C4200202C560108D19400084C35002069
:1040F0005056010825960008AC370020E455010809
:1041000071940008AC0300207456010865960008FD
:104110000C40002000B583B00E4B5A6942F00102FA
:104120005A615B6903F001030193019B00220521A1
:10413000102002F065F8102002F09AF80022052104
:10414000112002F05DF8112002F092F803B05DF842
:1041500004FB00BF0010024000B58DB024220021F6
:1041600003A8FCF729F900230193029313484FF0A9
:1041700080420260436083604FF6FF72C260036159
:104180008361032303930123059307220792099375
:1041900003A900F0BBFD50B900230193029301A9CC
:1041A000064801F02FF828B90DB05DF804FBFFF7C1
:1041B0005BFEF1E7FFF758FEF6E700BF7042002014
:1041C00000B58DB02422002103A8FCF7F5F80023E8
:1041D000019302931348144A0260436083604FF6D0
:1041E000FF72C2600361836103230393012305937C
:1041F00007220792099308230A9303A900F086FD7A
:1042000050B900230193029301A9064800F0FAFF78
:1042100028B90DB05DF804FBFFF726FEF1E7FFF7C4
:1042200023FEF6E7B84200200004004000B58DB040
:104230002422002103A8FCF7BFF800230193029376
:104240001248134A0260436083604FF6FF72C260F7
:1042500003618361032303930123059307220792DC
:10426000099303A900F052FD50B900230193029372
:1042700001A9064800F0C6FF28B90DB05DF804FB9F
:10428000FFF7F2FDF1E7FFF7EFFDF6E7004300204F
:104290000008004000B58DB02422002103A8FCF7DF
:1042A0008BF80023019302931348144A0260436081
:1042B00083604FF6FF72C26003618361032303933F
:1042C000012205920723079309920B9303A900F09B
:1042D0001DFD50B900230193029301A9064800F087
:1042E00091FF28B90DB05DF804FBFFF7BDFDF1E7C4
:1042F000FFF7BAFDF6E700BF48430020000C00407E
:1043000000B58FB000230A930B930C930D930368B1
:10431000B3F1804F0BD0484A93423FD0474A934273
:1043200056D0474A93426DD00FB05DF804FB03F5B9
:104330000433DA6942F00102DA61DA6902F001025B
:104340000192019A9A6942F004029A619A6902F014
:1043500004020292029A9A6942F008029A619B69E9
:1043600003F008030393039B4FF400430A930AA945
:10437000344801F017FB08230A9300230B930C9396
:104380000AA9314801F00EFB304A536823F4407308
:1043900043F0E06343F480735360C5E72C4BDA6964
:1043A00042F00202DA61DA6902F002020492049A2F
:1043B0009A6942F004029A619B6903F00403059331
:1043C000059BC0230A930AA91E4801F0EBFAABE74C
:1043D0001F4BDA6942F00402DA61DA6902F0040282
:1043E0000692069A9A6942F008029A619B6903F064
:1043F00008030793079BC0230A930AA9124801F0F8
:10440000D1FA91E7124BDA6942F00802DA61DA690F
:1044100002F008020892089A9A6942F004029A612E
:104420009B6903F004030993099B03230A930AA9D8
:10443000044801F0B7FA77E70004004000080040A4
:10444000000C004000080140000C01400000014049
:10445000001002400268094B9A4200D0704782B0B7
:1044600003F55C439A6942F400529A619B6903F434
:1044700000530193019B02B0704700BF003401401C
:1044800000B587B000230293039304930593026859
:104490000D4B9A4202D007B05DF804FB03F55C4374
:1044A0009A6942F010029A619B6903F0100301932C
:1044B000019B4FF47073029302230393059302A9A7
:1044C000024801F06FFAE6E70034014000100140B5
:1044D00010B596B00024129413941494159410946B
:1044E000119409940A940B940C940D940E940F94C7
:1044F0002022214601A8FBF75FFF3B483B4B0360AE
:104500004460846040F60F63C360046144618023AB
:10451000836100F0A3FB00284BD14FF4805312932A
:1045200012A9314800F000FD002845D12E4800F0C6
:10453000C1FB002843D100231093119310A92A48EE
:1045400000F060FE00283DD16023099300220A920A
:104550000B920C920D920E920F9209A9224800F034
:1045600069FC002831D1042209A91F4800F062FC2F
:1045700070BB082209A91C4800F05CFC58BB0C2247
:1045800009A9194800F056FC40BB0023019302938F
:104590000393049305934FF400520692089301A9E4
:1045A000114800F06DFEE0B90F48FFF769FF16B043
:1045B00010BDFFF759FCB0E7FFF756FCB6E7FFF771
:1045C00053FCB8E7FFF750FCBEE7FFF74DFCCAE726
:1045D000FFF74AFCCDE7FFF747FCD0E7FFF744FCC5
:1045E000D3E7FFF741FCDFE79043002000340140B0
:1045F00008B50A480A4B03604FF4E13343600023D7
:104600008360C36003610C2242618361C36101F076
:10461000F5FE00B908BDFFF727FCFBE7604400206A
:104620000044004070B586B00023029303930493C6
:1046300005930268334B9A4201D006B070BD044620
:1046400003F5E633DA6942F40032DA61DA6902F43A
:1046500000320092009A9A6942F004029A619B69C2
:1046600003F004030193019B0423029302230393A9
:1046700003230593244E02A9304601F093F9082341
:1046800002930025039504950DEB0301304601F0DC
:1046900089F91E481E4B0360456085608023C36016
:1046A00005614561202383614FF44053C36101F0EC
:1046B000BFFA00BB154BE3635C621648164B036000
:1046C00010234360002383608022C2600361436142
:1046D00083614FF44053C36101F0AAFA70B90D4BE6
:1046E000A3635C6200220521262001F089FD2620BB
:1046F00001F0BEFDA1E7FFF7B7FBDBE7FFF7B4FB77
:10470000EDE700BF0044004000080140D84300200E
:104710006C0002401C44002080000240FEE7FEE7DF
:10472000FEE7FEE7FEE7704708B5024801F0E0FB50
:1047300008BD00BFD843002008B5024801F0D8FBEF
:1047400008BD00BF1C44002008B5024800F083F9F2
:1047500008BD00BFA844002008B5024801F0E6FFEC
:1047600008BD00BF6044002000B583B0114B9A69BA
:1047700042F001029A619A6902F001020092009AE5
:10478000DA6942F08052DA61DB6903F08053019309
:10479000019B00220F216FF0010001F031FD064A5C
:1047A000536823F0E06343F00073536003B05DF897
:1047B00004FB00BF001002400000014030B589B08A
:1047C00004461E4B9A6942F400629A619B6903F4A5
:1047D00000630193019B02A903A801F0C5F801F051
:1047E000B3F803461648A0FB03239B0C013B154876
:1047F000154A026040F2E732C26043600023036161
:104800008360836100F02AFA054610B1284609B09A
:1048100030BD0C4800F0DEF805460028F6D119201E
:1048200001F026FD0F2C01D90125EFE700222146DA
:10483000192001F0E5FC054B1C60E7E70010024081
:1048400083DE1B43A8440020002C014068000020A8
:1048500030B4036A026A22F001020262426884698B
:1048600024F073040D682C4323F0020C8B6843EA98
:104870000C03104DA84203D005F50065A84205D1F0
:1048800023F00803CD682B4323F00403094DA8420D
:1048900003D005F50065A84205D122F440724D69A8
:1048A0002A438D692A43426084614A6842630362F5
:1048B00030BC7047002C014030B4036A026A22F415
:1048C000807202624268C46924F0730C0C6844EA86
:1048D0000C0523F400738C6843EA0423114CA042B6
:1048E00003D004F50064A04206D123F40063CC6831
:1048F00043EA042323F480630A4CA04203D004F566
:104900000064A04207D122F440524C6942EA0412EA
:104910008C6942EA04124260C5614A68C26303625C
:1049200030BC7047002C014030B4036A026A22F4A4
:10493000805202624468C26922F4E6420D6842EA8B
:10494000052223F400538D6843EA0533094DA8423C
:1049500003D005F50065A84204D124F480444D69D4
:1049600044EA85144460C2614A680264036230BC50
:10497000704700BF002C014010B4036A046A24F0A1
:1049800001040462846924F0F00C4CEA021223F062
:104990000A030B438261036210BC704710B4036AC0
:1049A000046A24F010040462846924F4704C4CEA14
:1049B000023223F0A00343EA01138261036210BCB8
:1049C0007047836823F070030B4343F00703836051
:1049D0007047000090F83D30DBB2012B2FD102234D
:1049E00080F83D300268D36843F00103D360036868
:1049F000154A934218D002F50062934214D0B3F1E5
:104A0000804F11D0A2F5983293420DD002F580620A
:104A1000934209D002F58062934205D01A6842F0B1
:104A200001021A60002070479A6802F00702062A05
:104A300007D01A6842F001021A6000207047012076
:104A400070470020704700BF002C0140704770473E
:104A500070477047704770B504460368DE681D698B
:104A600015F0020F10D016F0020F0DD06FF00202F9
:104A70001A610123037703689B6913F0030F5ED06B
:104A8000FFF7E6FF0023237715F0040F12D016F08E
:104A9000040F0FD023686FF004021A6102232377FA
:104AA00023689B6913F4407F4FD02046FFF7D0FF67
:104AB0000023237715F0080F12D016F0080F0FD03F
:104AC00023686FF008021A61042323772368DB69E7
:104AD00013F0030F40D02046FFF7BAFF00232377DF
:104AE00015F0100F12D016F0100F0FD023686FF0D2
:104AF00010021A61082323772368DB6913F4407FCF
:104B000031D02046FFF7A4FF0023237715F0010FD3
:104B100002D016F0010F2DD115F0800F02D016F043
:104B2000800F2FD115F0400F02D016F0400F31D179
:104B300015F0200F02D016F0200F33D170BDFFF713
:104B400086FF2046FFF785FF9CE72046FFF77FFFA3
:104B50002046FFF77EFFABE72046FFF778FF2046B1
:104B6000FFF777FFBAE72046FFF771FF2046FFF710
:104B700070FFC9E723686FF001021A612046FFF752
:104B800067F9C9E723686FF080021A61204600F0D8
:104B9000A1FBC7E723686FF040021A612046FFF7C8
:104BA00059FFC5E723686FF020021A61204600F024
:104BB00090FBC3E70368284A904212D002F50062D6
:104BC00090420ED0B0F1804F0BD0A2F598329042B7
:104BD00007D002F58062904203D002F580629042D5
:104BE00003D123F070034A6813431B4A904212D04A
:104BF00002F5006290420ED0B0F1804F0BD0A2F5CA
:104C00009832904207D002F58062904203D002F5BC
:104C10008062904203D123F44073CA68134323F0A7
:104C200080034A69134303608B68C3620B68836225
:104C3000094B984203D003F50063984201D10B69F8
:104C4000036301234361036913F0010F03D0036978
:104C500023F0010303617047002C014040B310B5FD
:104C6000044690F83D30F3B1022384F83D302146EC
:104C700051F8040BFFF79EFF012384F8463084F8B7
:104C80003E3084F83F3084F8403084F8413084F876
:104C9000423084F8433084F8443084F8453084F856
:104CA0003D30002010BD80F83C30FFF7D3FBDBE740
:104CB0000120704740B310B5044690F83D30F3B181
:104CC000022384F83D30214651F8040BFFF772FFB0
:104CD000012384F8463084F83E3084F83F3084F86D
:104CE000403084F8413084F8423084F8433084F80E
:104CF000443084F8453084F83D30002010BD80F801
:104D00003C30FFF7A3FEDBE701207047002857D0B7
:104D100070B50D46044690F83D30002B4BD0022371
:104D200084F83D302268936823F4804323F007031E
:104D30009360214651F8040BFFF73CFF21688A6815
:104D40008B690E6A2868104323F4407C2CF0030C16
:104D5000AA68AB6942EA032343EA0C0323F47C43C9
:104D600023F0FC03EA69D5F80CC04CEA022C4CEAAB
:104D7000030C2A6A13032A6943EA021343EA0C0369
:104D800026F022066A686D6942EA0512324388609D
:104D900021688B6123681A62012384F8463084F805
:104DA0003E3084F83F3084F8423084F8433084F851
:104DB0003D30002070BD80F83C30FFF7A1FAAEE72F
:104DC0000120704730B4036A026A22F010020262C6
:104DD0004468826922F4E6420D6842EA052223F023
:104DE00020038D6843EA0513114DA84203D005F551
:104DF0000065A84206D123F08003CD6843EA05137D
:104E000023F040030A4DA84203D005F50065A842EF
:104E100007D124F440644D6944EA85048D6944EA6D
:104E20008504446082614A688263036230BC7047D3
:104E3000002C014038B590F83C30012B66D0044678
:104E40000D46012380F83C300C2A5AD8DFE802F0E6
:104E5000075959591B595959305959594400006833
:104E6000FFF7F6FC2268936943F008039361226818
:104E7000936923F0040393612268936929690B43C2
:104E8000936100203EE00068FFF79CFF2268936971
:104E900043F4006393612268936923F48063936110
:104EA00022689369296943EA01239361002029E07C
:104EB0000068FFF701FD2268D36943F00803D3615E
:104EC0002268D36923F00403D3612268D369296976
:104ED0000B43D361002015E00068FFF725FD226831
:104EE000D36943F40063D3612268D36923F48063F8
:104EF000D3612268D369296943EA0123D361002081
:104F000000E00120002384F83C3038BD0220FCE79B
:104F100010B4846824F47F4C42EA03220A4342EA34
:104F20000C02826010BC704790F83C30012B78D0A6
:104F300010B50446012380F83C30022380F83D3050
:104F40000268936823F47F4323F0770393600B6830
:104F5000602B4CD029D8402B54D00CD9502B22D1C7
:104F6000CA6849680068FFF707FD50212068FFF70D
:104F700028FD002005E0202B0DD009D9302B0AD0C8
:104F80000120012384F83D30002384F83C3010BD1B
:104F90000BB1102B05D119462068FFF712FD002038
:104FA000EFE70120EDE70120EBE7B3F5805F34D0B8
:104FB000B3F5005F0CD1CB684A6889680068FFF7D9
:104FC000A7FF2268936843F4804393600020D8E7EA
:104FD000702B24D1CB684A6889680068FFF798FF76
:104FE0002268936843F0770393600020C9E7CA689A
:104FF00049680068FFF7D2FC60212068FFF7E1FCF8
:105000000020BEE7CA6849680068FFF7B5FC402188
:105010002068FFF7D6FC0020B3E70020B1E70120AD
:10502000AFE70220704701F01F01012303FA01FCE2
:10503000036A23EA0C030362036A02FA01F10B43D9
:105040000362704710B50446084600293AD194F827
:105050003E30DBB2013B18BF0123002B66D1002894
:1050600049D1022384F83E30012201462068FFF72F
:10507000DAFF23682F4A934203D002F5006293427D
:1050800003D15A6C42F400425A642368294A93427D
:1050900041D002F5006293423DD0B3F1804F3AD047
:1050A000A2F59832934236D002F58062934232D014
:1050B00002F5806293422ED01A6842F001021A6013
:1050C000002032E0042908D008290DD094F841309E
:1050D000DBB2013B18BF0123BFE794F83F30DBB2DE
:1050E000013B18BF0123B8E794F84030DBB2013B25
:1050F00018BF0123B1E7042805D0082807D00223F0
:1051000084F84130B0E7022384F83F30ACE7022353
:1051100084F84030A8E79A6802F00702062A07D010
:105120001A6842F001021A60002010BD0120FCE75D
:105130000020FAE7002C014038B5044690F83E0004
:10514000C0B294F83F3094F84220D2B294F843C0F1
:105150000D46B1B9012849D1012A48D1022384F86A
:105160003E3084F842307DB3042D39D00122002135
:105170002068FFF758FF012204212068FFF753FF42
:1051800027E0DBB25FFA8CFC042912D0012833D16E
:10519000012B2CD1012A31D1BCF1010F30D10223D6
:1051A00084F83E3084F83F3084F8423084F843304D
:1051B000D9E7012B1CD1BCF1010F1BD1022384F8CC
:1051C0003F3084F84330CEE7012200212068FFF70A
:1051D0002AFF2268136843F001031360002006E0F1
:1051E000012204212068FFF71EFFF2E7012038BDED
:1051F0000120FCE71846FAE70120F8E71846F6E731
:105200001046F4E790F83C30012B34D010B4012361
:1052100080F83C30022380F83D3003685A689C686F
:1052200022F0700C0A6842EA0C025A600368134AC2
:10523000934212D002F5006293420ED0B3F1804F38
:105240000BD0A2F59832934207D002F580629342C8
:1052500003D002F58062934204D124F080044A68AE
:1052600014439C60012380F83D30002380F83C30DB
:10527000184610BC70470220704700BF002C014048
:1052800090F83C30012B22D0012380F83C30CB68D1
:1052900023F440738A68134323F480634A681343FA
:1052A00023F400630A68134323F480530A69134309
:1052B00023F400534A69134323F48043CA69134318
:1052C00002685364002380F83C301846704702207F
:1052D000704770477047000008B5074A136843F0ED
:1052E00010031360032000F079FF0F20FFF766FA28
:1052F000FFF73AFA002008BD00200240034A116877
:10530000034B1B780B441360704700BFF044002030
:1053100064000020014B1868704700BFF044002073
:1053200082B0084B1B68084AA2FB03235B0A00FB00
:1053300003F3019300BF019B5A1E0192002BF9D188
:1053400002B070476C000020D34D6210002800F0BE
:10535000F18170B582B00446036813F0010F2CD0C0
:10536000994B5B6803F00C03042B1DD0964B5B68D4
:1053700003F00C03082B12D06368B3F5803F41D0D3
:10538000002B55D103F1804303F504331A6822F44E
:1053900080321A601A6822F480221A6037E08A4B41
:1053A0005B6813F4803FE7D0874B1B6813F4003F22
:1053B00003D06368002B00F0BF81236813F0020F55
:1053C00075D0814B5B6813F00C0F5FD07E4B5B6830
:1053D00003F00C03082B54D02369002B00F08A80C3
:1053E0007A4B01221A60FFF795FF0546764B1B6842
:1053F00013F0020F75D1FFF78DFF401B0228F5D97E
:1054000003209EE1704A136843F48033136063689D
:1054100043B3FFF77FFF05466B4B1B6813F4003F58
:10542000CBD1FFF777FF401B6428F5D9032088E133
:10543000B3F5A02F09D0644B1A6822F480321A60A9
:105440001A6822F480221A60E1E703F18043A3F591
:105450003C331A6842F480221A601A6842F480329F
:105460001A60D4E7FFF756FF0546574B1B6813F445
:10547000003FA2D0FFF74EFF401B6428F5D9032060
:105480005FE1514B5B6813F4803FA5D14E4B1B6825
:1054900013F0020F03D02369012B40F04F814A4AD9
:1054A000136823F0F803616943EAC10313602368BA
:1054B00013F0080F33D0A369002B5CD0434B0122BB
:1054C000C3F88024FFF726FF05463F4B5B6A13F0C5
:1054D000020F21D1FFF71EFF401B0228F5D9032040
:1054E0002FE1394A136823F0F803616943EAC103E5
:1054F0001360DCE7354B00221A60FFF70BFF05460F
:10550000314B1B6813F0020FD1D0FFF703FF401B94
:105510000228F5D9032014E10120FFF701FF2368D9
:1055200013F0040F00F09680274BDB6913F0805FC7
:1055300034D1254BDA6942F08052DA61DB6903F03D
:1055400080530193019B0125214B1B6813F4807F3D
:1055500026D0E368012B3DD0002B53D103F18043CB
:1055600003F504331A6A22F001021A621A6A22F061
:1055700004021A6233E0154B0022C3F88024FFF7BF
:10558000C9FE0546104B5B6A13F0020FC7D0FFF748
:10559000C1FE401B0228F5D90320D2E00025D3E745
:1055A0000B4A136843F480731360FFF7B3FE06469B
:1055B000074B1B6813F4807FCBD1FFF7ABFE801B3A
:1055C0006428F5D90320BCE00010024000004242EC
:1055D000007000405F4A136A43F001031362E368FE
:1055E00033B3FFF797FE06465A4B1B6A13F0020FC0
:1055F0002FD1FFF78FFE801B41F288339842F3D9F9
:1056000003209EE0052B09D0524B1A6A22F00102BA
:105610001A621A6A22F004021A62E0E74D4B1A6A13
:1056200042F004021A621A6A42F001021A62D6E7D4
:10563000FFF770FE0646474B1B6A13F0020F08D0B7
:10564000FFF768FE801B41F288339842F3D90320AC
:1056500077E0E5B9E369002B72D03E4A526802F068
:105660000C02082A56D0022B17D03B4B00221A6698
:10567000FFF750FE0446374B1B6813F0007F47D0FE
:10568000FFF748FE001B0228F5D9032059E0314AF4
:10569000D36923F08053D361DCE72F4B00221A66D5
:1056A000FFF738FE05462B4B1B6813F0007F06D032
:1056B000FFF730FE401B0228F5D9032041E0236AA2
:1056C000B3F5803F1AD023494B6823F47413226A40
:1056D000606A024313434B601F4B01221A66FFF7B7
:1056E00019FE04461B4B1B6813F0007F0ED1FFF719
:1056F00011FE001B0228F5D9032022E0154A536849
:1057000023F40033A1680B435360DCE7002018E06A
:10571000002016E0012B16D00E4B5B6803F480319D
:10572000226A914211D103F47013626A93420ED13E
:10573000002006E001207047012002E0012000E087
:10574000002002B070BD0120FBE70120F9E7012035
:10575000F7E700BF00100240000042420F4B5B68B9
:1057600003F00C02082A01D00D487047C3F38342AE
:105770000C49885C13F4803F0BD0084B5B68C3F383
:105780004043094AD35C064A02FB00F0B0FBF3F049
:105790007047064B03FB00F0704700BF001002404B
:1057A00000127A00BC560108CC56010800093D00E1
:1057B000002800F0A08070B50D460446524B1B68CF
:1057C00003F007038B420BD24F4A136823F0070301
:1057D0000B431360136803F007038B4240F08D8086
:1057E000236813F0020F17D013F0040F04D0474AB8
:1057F000536843F4E0635360236813F0080F04D048
:10580000424A536843F460535360404A536823F05C
:10581000F003A1680B435360236813F0010F31D0EC
:105820006368012B20D0022B25D0384A126812F071
:10583000020F64D035494A6822F0030213434B60DB
:10584000FFF768FD0646314B5B6803F00C036268A6
:10585000B3EB820F16D0FFF75DFD801B41F288335A
:105860009842F0D9032045E0284A126812F4003F1C
:10587000E0D101203EE0254A126812F0007FD9D124
:10588000012037E0204B1B6803F00703AB420AD925
:105890001D4A136823F007032B431360136803F0BA
:1058A0000703AB422DD1236813F0040F06D0174A2B
:1058B000536823F4E063E1680B435360236813F0FB
:1058C000080F07D0114A536823F46053216943EA53
:1058D000C1035360FFF742FF0C4B5B68C3F3031334
:1058E0000B4AD35CD8400B4B18600B4B1868FEF783
:1058F00065FF002070BD012070470120FAE70120FC
:10590000F8E70120F6E700BF002002400010024047
:10591000D05601086C00002068000020014B186878
:10592000704700BF6C00002008B5FFF7F7FF044B7D
:105930005B68C3F30223034AD35CD84008BD00BFB1
:1059400000100240E056010808B5FFF7E7FF044BDE
:105950005B68C3F3C223034AD35CD84008BD00BFD1
:1059600000100240E05601080F2303600B4B5A68F9
:1059700002F0030242605A6802F0F00282605A6844
:1059800002F4E062C2605B68DB0803F4E063036179
:10599000034B1B6803F007030B60704700100240C5
:1059A0000020024070B582B00024A446B0E0874DCC
:1059B000AA4210D007D9864DAA420CD005F58035F1
:1059C000AA4208D013E0A5F58015AA4203D005F538
:1059D0007025AA4207D18A68002A62D0012A5BD0CA
:1059E0004361082403E0A5F58015AA42F3D0BEF177
:1059F000FF0F58D80646BEF1FF0F56D84FEA8C026B
:105A000033680F25954023EA050304FA02F2134395
:105A100033604B6813F0805F78D06E4B9A6942F028
:105A200001029A619B6903F001030193019B4FEA14
:105A30009C02951C684B53F825600CF003039D00F5
:105A40000F23AB4026EA0306644B984233D003F59C
:105A50008063984200F0988003F58063984200F0DC
:105A6000958003F58063984200F0928003F580638F
:105A7000984200F08F8003F58063984219D0062386
:105A80001AE0CC68B3E7CC680434B0E7CC680834DB
:105A9000ADE7CC680C34AAE703610824A7E700242B
:105AA000A5E70424A3E7061DA5E7ACF108029200D0
:105AB000A6E7052300E00023AB4033430232464D06
:105AC00045F822304B6813F4801F65D0444A936830
:105AD00043EA0E0393604B6813F4001F62D0404A00
